{
  "_format": "hh-sol-artifact-1",
  "contractName": "JusticeLeague",
  "sourceName": "contracts/JusticeLeague.sol",
  "abi": [
    {
      "inputs": [],
      "stateMutability": "nonpayable",
      "type": "constructor"
    },
    {
      "anonymous": false,
      "inputs": [
        {
          "indexed": true,
          "internalType": "address",
          "name": "account",
          "type": "address"
        },
        {
          "indexed": true,
          "internalType": "address",
          "name": "operator",
          "type": "address"
        },
        {
          "indexed": false,
          "internalType": "bool",
          "name": "approved",
          "type": "bool"
        }
      ],
      "name": "ApprovalForAll",
      "type": "event"
    },
    {
      "anonymous": false,
      "inputs": [
        {
          "indexed": true,
          "internalType": "address",
          "name": "operator",
          "type": "address"
        },
        {
          "indexed": true,
          "internalType": "address",
          "name": "from",
          "type": "address"
        },
        {
          "indexed": true,
          "internalType": "address",
          "name": "to",
          "type": "address"
        },
        {
          "indexed": false,
          "internalType": "uint256[]",
          "name": "ids",
          "type": "uint256[]"
        },
        {
          "indexed": false,
          "internalType": "uint256[]",
          "name": "values",
          "type": "uint256[]"
        }
      ],
      "name": "TransferBatch",
      "type": "event"
    },
    {
      "anonymous": false,
      "inputs": [
        {
          "indexed": true,
          "internalType": "address",
          "name": "operator",
          "type": "address"
        },
        {
          "indexed": true,
          "internalType": "address",
          "name": "from",
          "type": "address"
        },
        {
          "indexed": true,
          "internalType": "address",
          "name": "to",
          "type": "address"
        },
        {
          "indexed": false,
          "internalType": "uint256",
          "name": "id",
          "type": "uint256"
        },
        {
          "indexed": false,
          "internalType": "uint256",
          "name": "value",
          "type": "uint256"
        }
      ],
      "name": "TransferSingle",
      "type": "event"
    },
    {
      "anonymous": false,
      "inputs": [
        {
          "indexed": false,
          "internalType": "string",
          "name": "value",
          "type": "string"
        },
        {
          "indexed": true,
          "internalType": "uint256",
          "name": "id",
          "type": "uint256"
        }
      ],
      "name": "URI",
      "type": "event"
    },
    {
      "inputs": [],
      "name": "Batman",
      "outputs": [
        {
          "internalType": "uint256",
          "name": "",
          "type": "uint256"
        }
      ],
      "stateMutability": "view",
      "type": "function"
    },
    {
      "inputs": [],
      "name": "Flash",
      "outputs": [
        {
          "internalType": "uint256",
          "name": "",
          "type": "uint256"
        }
      ],
      "stateMutability": "view",
      "type": "function"
    },
    {
      "inputs": [],
      "name": "Superman",
      "outputs": [
        {
          "internalType": "uint256",
          "name": "",
          "type": "uint256"
        }
      ],
      "stateMutability": "view",
      "type": "function"
    },
    {
      "inputs": [
        {
          "internalType": "address",
          "name": "account",
          "type": "address"
        },
        {
          "internalType": "uint256",
          "name": "id",
          "type": "uint256"
        }
      ],
      "name": "balanceOf",
      "outputs": [
        {
          "internalType": "uint256",
          "name": "",
          "type": "uint256"
        }
      ],
      "stateMutability": "view",
      "type": "function"
    },
    {
      "inputs": [
        {
          "internalType": "address[]",
          "name": "accounts",
          "type": "address[]"
        },
        {
          "internalType": "uint256[]",
          "name": "ids",
          "type": "uint256[]"
        }
      ],
      "name": "balanceOfBatch",
      "outputs": [
        {
          "internalType": "uint256[]",
          "name": "",
          "type": "uint256[]"
        }
      ],
      "stateMutability": "view",
      "type": "function"
    },
    {
      "inputs": [
        {
          "internalType": "address",
          "name": "account",
          "type": "address"
        },
        {
          "internalType": "address",
          "name": "operator",
          "type": "address"
        }
      ],
      "name": "isApprovedForAll",
      "outputs": [
        {
          "internalType": "bool",
          "name": "",
          "type": "bool"
        }
      ],
      "stateMutability": "view",
      "type": "function"
    },
    {
      "inputs": [
        {
          "internalType": "address",
          "name": "from",
          "type": "address"
        },
        {
          "internalType": "address",
          "name": "to",
          "type": "address"
        },
        {
          "internalType": "uint256[]",
          "name": "ids",
          "type": "uint256[]"
        },
        {
          "internalType": "uint256[]",
          "name": "amounts",
          "type": "uint256[]"
        },
        {
          "internalType": "bytes",
          "name": "data",
          "type": "bytes"
        }
      ],
      "name": "safeBatchTransferFrom",
      "outputs": [],
      "stateMutability": "nonpayable",
      "type": "function"
    },
    {
      "inputs": [
        {
          "internalType": "address",
          "name": "from",
          "type": "address"
        },
        {
          "internalType": "address",
          "name": "to",
          "type": "address"
        },
        {
          "internalType": "uint256",
          "name": "id",
          "type": "uint256"
        },
        {
          "internalType": "uint256",
          "name": "amount",
          "type": "uint256"
        },
        {
          "internalType": "bytes",
          "name": "data",
          "type": "bytes"
        }
      ],
      "name": "safeTransferFrom",
      "outputs": [],
      "stateMutability": "nonpayable",
      "type": "function"
    },
    {
      "inputs": [
        {
          "internalType": "address",
          "name": "operator",
          "type": "address"
        },
        {
          "internalType": "bool",
          "name": "approved",
          "type": "bool"
        }
      ],
      "name": "setApprovalForAll",
      "outputs": [],
      "stateMutability": "nonpayable",
      "type": "function"
    },
    {
      "inputs": [
        {
          "internalType": "bytes4",
          "name": "interfaceId",
          "type": "bytes4"
        }
      ],
      "name": "supportsInterface",
      "outputs": [
        {
          "internalType": "bool",
          "name": "",
          "type": "bool"
        }
      ],
      "stateMutability": "view",
      "type": "function"
    },
    {
      "inputs": [
        {
          "internalType": "uint256",
          "name": "_tokenid",
          "type": "uint256"
        }
      ],
      "name": "uri",
      "outputs": [
        {
          "internalType": "string",
          "name": "",
          "type": "string"
        }
      ],
      "stateMutability": "pure",
      "type": "function"
    }
  ],
  "bytecode": "0x60806040523480156200001157600080fd5b506040518060800160405280605a815260200162003639605a91396200003d81620000b360201b60201c565b5062000063336001606460405180602001604052806000815250620000cf60201b60201c565b62000088336002609660405180602001604052806000815250620000cf60201b60201c565b620000ad336003607860405180602001604052806000815250620000cf60201b60201c565b62000d02565b8060029080519060200190620000cb9291906200057d565b5050565b600073ffffffffffffffffffffffffffffffffffffffff168473ffffffffffffffffffffffffffffffffffffffff16141562000142576040517f08c379a000000000000000000000000000000000000000000000000000000000815260040162000139906200085b565b60405180910390fd5b600062000154620002b760201b60201c565b905060006200016985620002bf60201b60201c565b905060006200017e85620002bf60201b60201c565b905062000197836000898585896200034060201b60201c565b8460008088815260200190815260200160002060008973ffffffffffffffffffffffffffffffffffffffff1673ffffffffffffffffffffffffffffffffffffffff1681526020019081526020016000206000828254620001f89190620008ec565b925050819055508673ffffffffffffffffffffffffffffffffffffffff16600073ffffffffffffffffffffffffffffffffffffffff168473ffffffffffffffffffffffffffffffffffffffff167fc3d58168c5ae7397731d063d5bbf3d657854427343f4c083240f7aacaa2d0f628989604051620002789291906200087d565b60405180910390a462000297836000898585896200034860201b60201c565b620002ae836000898989896200035060201b60201c565b50505050505050565b600033905090565b60606000600167ffffffffffffffff811115620002e157620002e062000ae2565b5b604051908082528060200260200182016040528015620003105781602001602082028036833780820191505090505b50905082816000815181106200032b576200032a62000ab3565b5b60200260200101818152505080915050919050565b505050505050565b505050505050565b6200037c8473ffffffffffffffffffffffffffffffffffffffff166200055a60201b6200073b1760201c565b1562000552578373ffffffffffffffffffffffffffffffffffffffff1663f23a6e6187878686866040518663ffffffff1660e01b8152600401620003c59594939291906200078f565b602060405180830381600087803b158015620003e057600080fd5b505af19250505080156200041457506040513d601f19601f8201168201806040525081019062000411919062000644565b60015b620004c6576200042362000b11565b806308c379a014156200048757506200043b62000c46565b8062000448575062000489565b806040517f08c379a00000000000000000000000000000000000000000000000000000000081526004016200047e9190620007f3565b60405180910390fd5b505b6040517f08c379a0000000000000000000000000000000000000000000000000000000008152600401620004bd9062000817565b60405180910390fd5b63f23a6e6160e01b7bffffffffffffffffffffffffffffffffffffffffffffffffffffffff1916817bffffffffffffffffffffffffffffffffffffffffffffffffffffffff19161462000550576040517f08c379a0000000000000000000000000000000000000000000000000000000008152600401620005479062000839565b60405180910390fd5b505b505050505050565b6000808273ffffffffffffffffffffffffffffffffffffffff163b119050919050565b8280546200058b90620009e9565b90600052602060002090601f016020900481019282620005af5760008555620005fb565b82601f10620005ca57805160ff1916838001178555620005fb565b82800160010185558215620005fb579182015b82811115620005fa578251825591602001919060010190620005dd565b5b5090506200060a91906200060e565b5090565b5b80821115620006295760008160009055506001016200060f565b5090565b6000815190506200063e8162000ce8565b92915050565b6000602082840312156200065d576200065c62000b36565b5b60006200066d848285016200062d565b91505092915050565b620006818162000949565b82525050565b60006200069482620008b4565b620006a08185620008ca565b9350620006b2818560208601620009b3565b620006bd8162000b3b565b840191505092915050565b6000620006d582620008bf565b620006e18185620008db565b9350620006f3818560208601620009b3565b620006fe8162000b3b565b840191505092915050565b600062000718603483620008db565b9150620007258262000b59565b604082019050919050565b60006200073f602883620008db565b91506200074c8262000ba8565b604082019050919050565b600062000766602183620008db565b9150620007738262000bf7565b604082019050919050565b6200078981620009a9565b82525050565b600060a082019050620007a6600083018862000676565b620007b5602083018762000676565b620007c460408301866200077e565b620007d360608301856200077e565b8181036080830152620007e7818462000687565b90509695505050505050565b600060208201905081810360008301526200080f8184620006c8565b905092915050565b60006020820190508181036000830152620008328162000709565b9050919050565b60006020820190508181036000830152620008548162000730565b9050919050565b60006020820190508181036000830152620008768162000757565b9050919050565b60006040820190506200089460008301856200077e565b620008a360208301846200077e565b9392505050565b6000604051905090565b600081519050919050565b600081519050919050565b600082825260208201905092915050565b600082825260208201905092915050565b6000620008f982620009a9565b91506200090683620009a9565b9250827fffffffffffffffffffffffffffffffffffffffffffffffffffffffffffffffff038211156200093e576200093d62000a55565b5b828201905092915050565b6000620009568262000989565b9050919050565b60007fffffffff0000000000000000000000000000000000000000000000000000000082169050919050565b600073ffffffffffffffffffffffffffffffffffffffff82169050919050565b6000819050919050565b60005b83811015620009d3578082015181840152602081019050620009b6565b83811115620009e3576000848401525b50505050565b6000600282049050600182168062000a0257607f821691505b6020821081141562000a195762000a1862000a84565b5b50919050565b62000a2a8262000b3b565b810181811067ffffffffffffffff8211171562000a4c5762000a4b62000ae2565b5b80604052505050565b7f4e487b7100000000000000000000000000000000000000000000000000000000600052601160045260246000fd5b7f4e487b7100000000000000000000000000000000000000000000000000000000600052602260045260246000fd5b7f4e487b7100000000000000000000000000000000000000000000000000000000600052603260045260246000fd5b7f4e487b7100000000000000000000000000000000000000000000000000000000600052604160045260246000fd5b600060033d111562000b335760046000803e62000b3060005162000b4c565b90505b90565b600080fd5b6000601f19601f8301169050919050565b60008160e01c9050919050565b7f455243313135353a207472616e7366657220746f206e6f6e204552433131353560008201527f526563656976657220696d706c656d656e746572000000000000000000000000602082015250565b7f455243313135353a204552433131353552656365697665722072656a6563746560008201527f6420746f6b656e73000000000000000000000000000000000000000000000000602082015250565b7f455243313135353a206d696e7420746f20746865207a65726f2061646472657360008201527f7300000000000000000000000000000000000000000000000000000000000000602082015250565b600060443d101562000c585762000ce5565b62000c62620008aa565b60043d036004823e80513d602482011167ffffffffffffffff8211171562000c8c57505062000ce5565b808201805167ffffffffffffffff81111562000cac575050505062000ce5565b80602083010160043d03850181111562000ccb57505050505062000ce5565b62000cdc8260200185018662000a1f565b82955050505050505b90565b62000cf3816200095d565b811462000cff57600080fd5b50565b6129278062000d126000396000f3fe608060405234801561001057600080fd5b50600436106100a85760003560e01c80634e1273f4116100715780634e1273f414610177578063a22cb465146101a7578063e66ca9da146101c3578063e985e9c5146101e1578063f242432a14610211578063f3192c771461022d576100a8565b8062fdd58e146100ad57806301ffc9a7146100dd5780630e89341c1461010d5780632eb2c2d61461013d5780633ab207a314610159575b600080fd5b6100c760048036038101906100c291906118af565b61024b565b6040516100d49190611fac565b60405180910390f35b6100f760048036038101906100f29190611967565b610314565b6040516101049190611e2f565b60405180910390f35b610127600480360381019061012291906119c1565b6103f6565b6040516101349190611e4a565b60405180910390f35b61015760048036038101906101529190611709565b610427565b005b6101616104c8565b60405161016e9190611fac565b60405180910390f35b610191600480360381019061018c91906118ef565b6104cd565b60405161019e9190611dd6565b60405180910390f35b6101c160048036038101906101bc919061186f565b6105e6565b005b6101cb6105fc565b6040516101d89190611fac565b60405180910390f35b6101fb60048036038101906101f691906116c9565b610601565b6040516102089190611e2f565b60405180910390f35b61022b600480360381019061022691906117d8565b610695565b005b610235610736565b6040516102429190611fac565b60405180910390f35b60008073ffffffffffffffffffffffffffffffffffffffff168373ffffffffffffffffffffffffffffffffffffffff1614156102bc576040517f08c379a00000000000000000000000000000000000000000000000000000000081526004016102b390611eac565b60405180910390fd5b60008083815260200190815260200160002060008473ffffffffffffffffffffffffffffffffffffffff1673ffffffffffffffffffffffffffffffffffffffff16815260200190815260200160002054905092915050565b60007fd9b67a26000000000000000000000000000000000000000000000000000000007bffffffffffffffffffffffffffffffffffffffffffffffffffffffff1916827bffffffffffffffffffffffffffffffffffffffffffffffffffffffff191614806103df57507f0e89341c000000000000000000000000000000000000000000000000000000007bffffffffffffffffffffffffffffffffffffffffffffffffffffffff1916827bffffffffffffffffffffffffffffffffffffffffffffffffffffffff1916145b806103ef57506103ee8261075e565b5b9050919050565b6060610401826107c8565b6040516020016104119190611ce7565b6040516020818303038152906040529050919050565b61042f610929565b73ffffffffffffffffffffffffffffffffffffffff168573ffffffffffffffffffffffffffffffffffffffff16148061047557506104748561046f610929565b610601565b5b6104b4576040517f08c379a00000000000000000000000000000000000000000000000000000000081526004016104ab90611f0c565b60405180910390fd5b6104c18585858585610931565b5050505050565b600381565b60608151835114610513576040517f08c379a000000000000000000000000000000000000000000000000000000000815260040161050a90611f6c565b60405180910390fd5b6000835167ffffffffffffffff8111156105305761052f6123c3565b5b60405190808252806020026020018201604052801561055e5781602001602082028036833780820191505090505b50905060005b84518110156105db576105ab85828151811061058357610582612394565b5b602002602001015185838151811061059e5761059d612394565b5b602002602001015161024b565b8282815181106105be576105bd612394565b5b602002602001018181525050806105d4906122bc565b9050610564565b508091505092915050565b6105f86105f1610929565b8383610c53565b5050565b600281565b6000600160008473ffffffffffffffffffffffffffffffffffffffff1673ffffffffffffffffffffffffffffffffffffffff16815260200190815260200160002060008373ffffffffffffffffffffffffffffffffffffffff1673ffffffffffffffffffffffffffffffffffffffff16815260200190815260200160002060009054906101000a900460ff16905092915050565b61069d610929565b73ffffffffffffffffffffffffffffffffffffffff168573ffffffffffffffffffffffffffffffffffffffff1614806106e357506106e2856106dd610929565b610601565b5b610722576040517f08c379a000000000000000000000000000000000000000000000000000000000815260040161071990611ecc565b60405180910390fd5b61072f8585858585610dc0565b5050505050565b600181565b6000808273ffffffffffffffffffffffffffffffffffffffff163b119050919050565b60007f01ffc9a7000000000000000000000000000000000000000000000000000000007bffffffffffffffffffffffffffffffffffffffffffffffffffffffff1916827bffffffffffffffffffffffffffffffffffffffffffffffffffffffff1916149050919050565b60606000821415610810576040518060400160405280600181526020017f30000000000000000000000000000000000000000000000000000000000000008152509050610924565b600082905060005b6000821461084257808061082b906122bc565b915050600a8261083b9190612170565b9150610818565b60008167ffffffffffffffff81111561085e5761085d6123c3565b5b6040519080825280601f01601f1916602001820160405280156108905781602001600182028036833780820191505090505b5090505b6000851461091d576001826108a991906121a1565b9150600a856108b89190612305565b60306108c4919061211a565b60f81b8183815181106108da576108d9612394565b5b60200101907effffffffffffffffffffffffffffffffffffffffffffffffffffffffffffff1916908160001a905350600a856109169190612170565b9450610894565b8093505050505b919050565b600033905090565b8151835114610975576040517f08c379a000000000000000000000000000000000000000000000000000000000815260040161096c90611f8c565b60405180910390fd5b600073ffffffffffffffffffffffffffffffffffffffff168473ffffffffffffffffffffffffffffffffffffffff1614156109e5576040517f08c379a00000000000000000000000000000000000000000000000000000000081526004016109dc90611eec565b60405180910390fd5b60006109ef610929565b90506109ff81878787878761105c565b60005b8451811015610bb0576000858281518110610a2057610a1f612394565b5b602002602001015190506000858381518110610a3f57610a3e612394565b5b60200260200101519050600080600084815260200190815260200160002060008b73ffffffffffffffffffffffffffffffffffffffff1673ffffffffffffffffffffffffffffffffffffffff16815260200190815260200160002054905081811015610ae0576040517f08c379a0000000000000000000000000000000000000000000000000000000008152600401610ad790611f2c565b60405180910390fd5b81810360008085815260200190815260200160002060008c73ffffffffffffffffffffffffffffffffffffffff1673ffffffffffffffffffffffffffffffffffffffff168152602001908152602001600020819055508160008085815260200190815260200160002060008b73ffffffffffffffffffffffffffffffffffffffff1673ffffffffffffffffffffffffffffffffffffffff1681526020019081526020016000206000828254610b95919061211a565b9250508190555050505080610ba9906122bc565b9050610a02565b508473ffffffffffffffffffffffffffffffffffffffff168673ffffffffffffffffffffffffffffffffffffffff168273ffffffffffffffffffffffffffffffffffffffff167f4a39dc06d4c0dbc64b70af90fd698a233a518aa5d07e595d983b8c0526c8f7fb8787604051610c27929190611df8565b60405180910390a4610c3d818787878787611064565b610c4b81878787878761106c565b505050505050565b8173ffffffffffffffffffffffffffffffffffffffff168373ffffffffffffffffffffffffffffffffffffffff161415610cc2576040517f08c379a0000000000000000000000000000000000000000000000000000000008152600401610cb990611f4c565b60405180910390fd5b80600160008573ffffffffffffffffffffffffffffffffffffffff1673ffffffffffffffffffffffffffffffffffffffff16815260200190815260200160002060008473ffffffffffffffffffffffffffffffffffffffff1673ffffffffffffffffffffffffffffffffffffffff16815260200190815260200160002060006101000a81548160ff0219169083151502179055508173ffffffffffffffffffffffffffffffffffffffff168373ffffffffffffffffffffffffffffffffffffffff167f17307eab39ab6107e8899845ad3d59bd9653f200f220920489ca2b5937696c3183604051610db39190611e2f565b60405180910390a3505050565b600073ffffffffffffffffffffffffffffffffffffffff168473ffffffffffffffffffffffffffffffffffffffff161415610e30576040517f08c379a0000000000000000000000000000000000000000000000000000000008152600401610e2790611eec565b60405180910390fd5b6000610e3a610929565b90506000610e4785611253565b90506000610e5485611253565b9050610e6483898985858961105c565b600080600088815260200190815260200160002060008a73ffffffffffffffffffffffffffffffffffffffff1673ffffffffffffffffffffffffffffffffffffffff16815260200190815260200160002054905085811015610efb576040517f08c379a0000000000000000000000000000000000000000000000000000000008152600401610ef290611f2c565b60405180910390fd5b85810360008089815260200190815260200160002060008b73ffffffffffffffffffffffffffffffffffffffff1673ffffffffffffffffffffffffffffffffffffffff168152602001908152602001600020819055508560008089815260200190815260200160002060008a73ffffffffffffffffffffffffffffffffffffffff1673ffffffffffffffffffffffffffffffffffffffff1681526020019081526020016000206000828254610fb0919061211a565b925050819055508773ffffffffffffffffffffffffffffffffffffffff168973ffffffffffffffffffffffffffffffffffffffff168573ffffffffffffffffffffffffffffffffffffffff167fc3d58168c5ae7397731d063d5bbf3d657854427343f4c083240f7aacaa2d0f628a8a60405161102d929190611fc7565b60405180910390a4611043848a8a86868a611064565b611051848a8a8a8a8a6112cd565b505050505050505050565b505050505050565b505050505050565b61108b8473ffffffffffffffffffffffffffffffffffffffff1661073b565b1561124b578373ffffffffffffffffffffffffffffffffffffffff1663bc197c8187878686866040518663ffffffff1660e01b81526004016110d1959493929190611d14565b602060405180830381600087803b1580156110eb57600080fd5b505af192505050801561111c57506040513d601f19601f820116820180604052508101906111199190611994565b60015b6111c2576111286123f2565b806308c379a01415611185575061113d6127ff565b806111485750611187565b806040517f08c379a000000000000000000000000000000000000000000000000000000000815260040161117c9190611e4a565b60405180910390fd5b505b6040517f08c379a00000000000000000000000000000000000000000000000000000000081526004016111b990611e6c565b60405180910390fd5b63bc197c8160e01b7bffffffffffffffffffffffffffffffffffffffffffffffffffffffff1916817bffffffffffffffffffffffffffffffffffffffffffffffffffffffff191614611249576040517f08c379a000000000000000000000000000000000000000000000000000000000815260040161124090611e8c565b60405180910390fd5b505b505050505050565b60606000600167ffffffffffffffff811115611272576112716123c3565b5b6040519080825280602002602001820160405280156112a05781602001602082028036833780820191505090505b50905082816000815181106112b8576112b7612394565b5b60200260200101818152505080915050919050565b6112ec8473ffffffffffffffffffffffffffffffffffffffff1661073b565b156114ac578373ffffffffffffffffffffffffffffffffffffffff1663f23a6e6187878686866040518663ffffffff1660e01b8152600401611332959493929190611d7c565b602060405180830381600087803b15801561134c57600080fd5b505af192505050801561137d57506040513d601f19601f8201168201806040525081019061137a9190611994565b60015b611423576113896123f2565b806308c379a014156113e6575061139e6127ff565b806113a957506113e8565b806040517f08c379a00000000000000000000000000000000000000000000000000000000081526004016113dd9190611e4a565b60405180910390fd5b505b6040517f08c379a000000000000000000000000000000000000000000000000000000000815260040161141a90611e6c565b60405180910390fd5b63f23a6e6160e01b7bffffffffffffffffffffffffffffffffffffffffffffffffffffffff1916817bffffffffffffffffffffffffffffffffffffffffffffffffffffffff1916146114aa576040517f08c379a00000000000000000000000000000000000000000000000000000000081526004016114a190611e8c565b60405180910390fd5b505b505050505050565b60006114c76114c284612015565b611ff0565b905080838252602082019050828560208602820111156114ea576114e9612419565b5b60005b8581101561151a578161150088826115d6565b8452602084019350602083019250506001810190506114ed565b5050509392505050565b600061153761153284612041565b611ff0565b9050808382526020820190508285602086028201111561155a57611559612419565b5b60005b8581101561158a578161157088826116b4565b84526020840193506020830192505060018101905061155d565b5050509392505050565b60006115a76115a28461206d565b611ff0565b9050828152602081018484840111156115c3576115c261241e565b5b6115ce848285612249565b509392505050565b6000813590506115e581612895565b92915050565b600082601f830112611600576115ff612414565b5b81356116108482602086016114b4565b91505092915050565b600082601f83011261162e5761162d612414565b5b813561163e848260208601611524565b91505092915050565b600081359050611656816128ac565b92915050565b60008135905061166b816128c3565b92915050565b600081519050611680816128c3565b92915050565b600082601f83011261169b5761169a612414565b5b81356116ab848260208601611594565b91505092915050565b6000813590506116c3816128da565b92915050565b600080604083850312156116e0576116df612428565b5b60006116ee858286016115d6565b92505060206116ff858286016115d6565b9150509250929050565b600080600080600060a0868803121561172557611724612428565b5b6000611733888289016115d6565b9550506020611744888289016115d6565b945050604086013567ffffffffffffffff81111561176557611764612423565b5b61177188828901611619565b935050606086013567ffffffffffffffff81111561179257611791612423565b5b61179e88828901611619565b925050608086013567ffffffffffffffff8111156117bf576117be612423565b5b6117cb88828901611686565b9150509295509295909350565b600080600080600060a086880312156117f4576117f3612428565b5b6000611802888289016115d6565b9550506020611813888289016115d6565b9450506040611824888289016116b4565b9350506060611835888289016116b4565b925050608086013567ffffffffffffffff81111561185657611855612423565b5b61186288828901611686565b9150509295509295909350565b6000806040838503121561188657611885612428565b5b6000611894858286016115d6565b92505060206118a585828601611647565b9150509250929050565b600080604083850312156118c6576118c5612428565b5b60006118d4858286016115d6565b92505060206118e5858286016116b4565b9150509250929050565b6000806040838503121561190657611905612428565b5b600083013567ffffffffffffffff81111561192457611923612423565b5b611930858286016115eb565b925050602083013567ffffffffffffffff81111561195157611950612423565b5b61195d85828601611619565b9150509250929050565b60006020828403121561197d5761197c612428565b5b600061198b8482850161165c565b91505092915050565b6000602082840312156119aa576119a9612428565b5b60006119b884828501611671565b91505092915050565b6000602082840312156119d7576119d6612428565b5b60006119e5848285016116b4565b91505092915050565b60006119fa8383611cc9565b60208301905092915050565b611a0f816121d5565b82525050565b6000611a20826120ae565b611a2a81856120dc565b9350611a358361209e565b8060005b83811015611a66578151611a4d88826119ee565b9750611a58836120cf565b925050600181019050611a39565b5085935050505092915050565b611a7c816121e7565b82525050565b6000611a8d826120b9565b611a9781856120ed565b9350611aa7818560208601612258565b611ab08161242d565b840191505092915050565b6000611ac6826120c4565b611ad081856120fe565b9350611ae0818560208601612258565b611ae98161242d565b840191505092915050565b6000611aff826120c4565b611b09818561210f565b9350611b19818560208601612258565b80840191505092915050565b6000611b326034836120fe565b9150611b3d8261244b565b604082019050919050565b6000611b556028836120fe565b9150611b608261249a565b604082019050919050565b6000611b78602b836120fe565b9150611b83826124e9565b604082019050919050565b6000611b9b60518361210f565b9150611ba682612538565b605182019050919050565b6000611bbe6029836120fe565b9150611bc9826125ad565b604082019050919050565b6000611be16025836120fe565b9150611bec826125fc565b604082019050919050565b6000611c046032836120fe565b9150611c0f8261264b565b604082019050919050565b6000611c27602a836120fe565b9150611c328261269a565b604082019050919050565b6000611c4a60058361210f565b9150611c55826126e9565b600582019050919050565b6000611c6d6029836120fe565b9150611c7882612712565b604082019050919050565b6000611c906029836120fe565b9150611c9b82612761565b604082019050919050565b6000611cb36028836120fe565b9150611cbe826127b0565b604082019050919050565b611cd28161223f565b82525050565b611ce18161223f565b82525050565b6000611cf282611b8e565b9150611cfe8284611af4565b9150611d0982611c3d565b915081905092915050565b600060a082019050611d296000830188611a06565b611d366020830187611a06565b8181036040830152611d488186611a15565b90508181036060830152611d5c8185611a15565b90508181036080830152611d708184611a82565b90509695505050505050565b600060a082019050611d916000830188611a06565b611d9e6020830187611a06565b611dab6040830186611cd8565b611db86060830185611cd8565b8181036080830152611dca8184611a82565b90509695505050505050565b60006020820190508181036000830152611df08184611a15565b905092915050565b60006040820190508181036000830152611e128185611a15565b90508181036020830152611e268184611a15565b90509392505050565b6000602082019050611e446000830184611a73565b92915050565b60006020820190508181036000830152611e648184611abb565b905092915050565b60006020820190508181036000830152611e8581611b25565b9050919050565b60006020820190508181036000830152611ea581611b48565b9050919050565b60006020820190508181036000830152611ec581611b6b565b9050919050565b60006020820190508181036000830152611ee581611bb1565b9050919050565b60006020820190508181036000830152611f0581611bd4565b9050919050565b60006020820190508181036000830152611f2581611bf7565b9050919050565b60006020820190508181036000830152611f4581611c1a565b9050919050565b60006020820190508181036000830152611f6581611c60565b9050919050565b60006020820190508181036000830152611f8581611c83565b9050919050565b60006020820190508181036000830152611fa581611ca6565b9050919050565b6000602082019050611fc16000830184611cd8565b92915050565b6000604082019050611fdc6000830185611cd8565b611fe96020830184611cd8565b9392505050565b6000611ffa61200b565b9050612006828261228b565b919050565b6000604051905090565b600067ffffffffffffffff8211156120305761202f6123c3565b5b602082029050602081019050919050565b600067ffffffffffffffff82111561205c5761205b6123c3565b5b602082029050602081019050919050565b600067ffffffffffffffff821115612088576120876123c3565b5b6120918261242d565b9050602081019050919050565b6000819050602082019050919050565b600081519050919050565b600081519050919050565b600081519050919050565b6000602082019050919050565b600082825260208201905092915050565b600082825260208201905092915050565b600082825260208201905092915050565b600081905092915050565b60006121258261223f565b91506121308361223f565b9250827fffffffffffffffffffffffffffffffffffffffffffffffffffffffffffffffff0382111561216557612164612336565b5b828201905092915050565b600061217b8261223f565b91506121868361223f565b92508261219657612195612365565b5b828204905092915050565b60006121ac8261223f565b91506121b78361223f565b9250828210156121ca576121c9612336565b5b828203905092915050565b60006121e08261221f565b9050919050565b60008115159050919050565b60007fffffffff0000000000000000000000000000000000000000000000000000000082169050919050565b600073ffffffffffffffffffffffffffffffffffffffff82169050919050565b6000819050919050565b82818337600083830152505050565b60005b8381101561227657808201518184015260208101905061225b565b83811115612285576000848401525b50505050565b6122948261242d565b810181811067ffffffffffffffff821117156122b3576122b26123c3565b5b80604052505050565b60006122c78261223f565b91507fffffffffffffffffffffffffffffffffffffffffffffffffffffffffffffffff8214156122fa576122f9612336565b5b600182019050919050565b60006123108261223f565b915061231b8361223f565b92508261232b5761232a612365565b5b828206905092915050565b7f4e487b7100000000000000000000000000000000000000000000000000000000600052601160045260246000fd5b7f4e487b7100000000000000000000000000000000000000000000000000000000600052601260045260246000fd5b7f4e487b7100000000000000000000000000000000000000000000000000000000600052603260045260246000fd5b7f4e487b7100000000000000000000000000000000000000000000000000000000600052604160045260246000fd5b600060033d11156124115760046000803e61240e60005161243e565b90505b90565b600080fd5b600080fd5b600080fd5b600080fd5b600080fd5b6000601f19601f8301169050919050565b60008160e01c9050919050565b7f455243313135353a207472616e7366657220746f206e6f6e204552433131353560008201527f526563656976657220696d706c656d656e746572000000000000000000000000602082015250565b7f455243313135353a204552433131353552656365697665722072656a6563746560008201527f6420746f6b656e73000000000000000000000000000000000000000000000000602082015250565b7f455243313135353a2062616c616e636520717565727920666f7220746865207a60008201527f65726f2061646472657373000000000000000000000000000000000000000000602082015250565b7f68747470733a2f2f676174657761792e70696e6174612e636c6f75642f69706660008201527f732f516d564a427070457472316a435a58445376764871534e316a517875686f60208201527f667041464d77476e3447746d4d3942392f000000000000000000000000000000604082015250565b7f455243313135353a2063616c6c6572206973206e6f74206f776e6572206e6f7260008201527f20617070726f7665640000000000000000000000000000000000000000000000602082015250565b7f455243313135353a207472616e7366657220746f20746865207a65726f20616460008201527f6472657373000000000000000000000000000000000000000000000000000000602082015250565b7f455243313135353a207472616e736665722063616c6c6572206973206e6f742060008201527f6f776e6572206e6f7220617070726f7665640000000000000000000000000000602082015250565b7f455243313135353a20696e73756666696369656e742062616c616e636520666f60008201527f72207472616e7366657200000000000000000000000000000000000000000000602082015250565b7f2e6a736f6e000000000000000000000000000000000000000000000000000000600082015250565b7f455243313135353a2073657474696e6720617070726f76616c2073746174757360008201527f20666f722073656c660000000000000000000000000000000000000000000000602082015250565b7f455243313135353a206163636f756e747320616e6420696473206c656e67746860008201527f206d69736d617463680000000000000000000000000000000000000000000000602082015250565b7f455243313135353a2069647320616e6420616d6f756e7473206c656e6774682060008201527f6d69736d61746368000000000000000000000000000000000000000000000000602082015250565b600060443d101561280f57612892565b61281761200b565b60043d036004823e80513d602482011167ffffffffffffffff8211171561283f575050612892565b808201805167ffffffffffffffff81111561285d5750505050612892565b80602083010160043d03850181111561287a575050505050612892565b6128898260200185018661228b565b82955050505050505b90565b61289e816121d5565b81146128a957600080fd5b50565b6128b5816121e7565b81146128c057600080fd5b50565b6128cc816121f3565b81146128d757600080fd5b50565b6128e38161223f565b81146128ee57600080fd5b5056fea26469706673582212200ac4bd9b6fc8dd245081ea3344455ba39aa4017b57ce27acc670fe183acffabf64736f6c6343000807003368747470733a2f2f676174657761792e70696e6174612e636c6f75642f697066732f516d564a427070457472316a435a58445376764871534e316a517875686f667041464d77476e3447746d4d3942392f7b69647d2e6a736f6e",
  "linkReferences": {},
  "deployedLinkReferences": {}
}